:10000000C4C00000DFC00000DDC00000DBC0000095
:10001000D9C00000D7C00000D5C00000D3C0000088
:10002000D1C00000CFC0000068C20000A0C2000024
:10003000C9C00000C7C00000C5C00000C3C00000A8
:10004000C1C00000BFC00000BDC00000BBC00000B8
:10005000B9C00000B7C00000B5C00000B3C00000C8
:10006000B1C00000AFC00000ADC00000ABC00000D8
:10007000A9C00000A7C00000A5C00000A3C00000E8
:10008000A1C000009FC000009DC000009BC00000F8
:1000900099C0000097C00000000100006D0112002F
:1000A0000200002A014300030000260104010309A5
:1000B0000416010E02030904D0004403030904C21C
:1000C000000C0C0331003200330034003500000016
:1000D000440353005900530043004F004E002000DA
:1000E000530050004900200050005300330020000E
:1000F00046006C006100730068006500720020001B
:100100005500530042002000530065007200690052
:1001100061006C0000000E036A0075006400670057
:100120006500730000000403090409024300020192
:1001300000C0FA09040000010202010005240010B9
:10014000010524010101042402060524060001071B
:1001500005820310004009040100020A00000007A4
:100160000503024000000705840240000012010060
:100170000202000010C0167A04000101020301000F
:1001800001C1120180360181360011241FBECFEF5C
:10019000D0E2DEBFCDBF11E0A0E0B1E0EEE0F8E0DC
:1001A00000E00BBF02C007900D92A830B107D9F74D
:1001B00021E0A8E0B1E001C01D92A031B207E1F753
:1001C0002DD023C31DCF84B1806784B92E9A2C987B
:1001D0002D9A089511B814B817B81AB81DB810BAE6
:1001E00012B815B818B81BB81EB811BA0895CF9335
:1001F000DF9300D0CDB7DEB720910C0130910D0117
:100200002115310511F420E131E0CE010196821B68
:10021000930B0F900F90DF91CF910895CF93DF93C1
:10022000CDB7DEB7A1970FB6F894DEBF0FBECDBF36
:1002300080E88093610091E09093610091E895BF20
:1002400085BFC8DF1CBC209A289A80E18CBD84B190
:10025000866084B923982B9A8DB581608DBD82E527
:100260008CBDB1DFB9D0D1D08823E9F38FE794E812
:10027000AEE1B0E00197A109B109000001F0D1F7AA
:10028000C895000099EAD92E23EAC22E38EAB32E87
:100290008E010F5F1F4F44EAA42EDDD0B6D0882315
:1002A000E1F3B6D08F3F2FEF9207C1F38230910573
:1002B00009F174F40097D9F0019781F798DFF82ECF
:1002C00081E099A3DBD099A1892FD8D08F2D10C0C0
:1002D0008430910509F446C054F10597F9F698D099
:1002E000682E96D0782E94D04C01780149C080E0D9
:1002F000C5D0D4CF2898DEBC0DB407FEFDCF1EBC00
:100300000DB407FEFDCF1EBC0DB407FEFDCF1EBC15
:100310000DB407FEFDCF84E0F82E1EBC0DB407FE21
:10032000FDCF8EB5ABD0FA94F110F7CF4EC0289820
:10033000BEBC0DB407FEFDCF1EBC0DB407FEFDCF45
:100340001EBC0DB407FEFDCFE12CF12CF7FC3DC027
:100350001EBC0DB407FEFDCF8EB590D08FEFE81A0E
:10036000F80AF4CF2898CEBC0DB407FEFDCF1EBC12
:100370000DB407FEFDCF1EBC0DB407FEFDCF25C09A
:10038000C701801B910B8815990528F441D0F7010E
:1003900081937F01F5CF2898AEBC0DB407FEFDCF49
:1003A0006EBC0DB407FEFDCF7EBC0DB407FEFDCFC5
:1003B000F801CF01801B910B8815990530F48191CC
:1003C0008EBD0DB407FEFDCFF4CF289A67CF809184
:1003D000E80080FFFCCF089581E88093D70080EA91
:1003E0008093D80086E189BD09B400FEFDCF80E985
:1003F0008093D8001092E00010920B011092080137
:100400008CE08093E2007894089580910B01089528
:100410009FB7F89480910B01882369F083E0809363
:10042000E9002BE68091E80085FD09C082FF03C04A
:100430002093E800F7CF9FBF8FEF9FEF0895809143
:10044000F1002091E80025FD03C02BE62093E80091
:100450009FBF90E0089580910B01882371F08FB7C2
:10046000F89493E09093E9002BE69091E80095FFD3
:1004700003C02093E800F9CF8FBF089590910B013E
:10048000992371F09FB7F89424E02093E90020911C
:100490000901222349F02091E80025FD03C09FBFF8
:1004A0008FEF0895109209012091E400205F34E05D
:1004B0004091E80045FD12C09FBF9091E400921367
:1004C00004C081E080930901EBCF90910B01992347
:1004D00039F39FB7F8943093E900EACF8093F100A5
:1004E0008091E80085FD03C08AE38093E80085E001
:1004F00080930A019FBF80E008951F920F920FB66C
:100500000F9211248F939F938091E1001092E1004C
:1005100083FF11C01092E90091E09093EB001092DC
:10052000EC0092E19093ED0098E09093F00010922F
:100530000B011092080182FF13C080910B018823E8
:1005400079F080910A01882359F0815080930A0143
:10055000811106C084E08093E9008AE38093E8007B
:100560009F918F910F900FBE0F901F9018951F9223
:100570000F920FB60F9211240BB60F92EF92FF92CB
:100580000F931F932F933F934F935F936F937F939B
:100590008F939F93AF93BF93EF93FF93CF93DF938B
:1005A0001F92CDB7DEB71092E9008091E80083FF7B
:1005B0000FC19091F1008091F1000091F100209124
:1005C000F10010E0122B3091F1002091F100E32EA8
:1005D000F12CF22A2091F1006091F10032EF30937A
:1005E000E800863009F046C036E088E990E0FC017A
:1005F000459154914017510739F4FC0132964591C9
:1006000054914E155F0521F00796315081F7E0C0F7
:10061000FC01349645915491FC013696849130E06A
:10062000362B2F3F310519F010F02FEF30E028174F
:1006300008F4822F3EEF9091E800292F2570D9F31E
:1006400092FDC9C0982F813108F090E1FA01292F5D
:10065000222331F064916093F10021503196F8CF5C
:10066000490F511D891B3093E8008111E4CF90316F
:1006700011F3B1C0853041F48EEF8093E800A7DE1E
:1006800000680093E300A7C0893059F59111A0C01C
:1006900000930B011092080110920A018EEF8093D3
:1006A000E80041E08FE791E04093E9009C012F5F73
:1006B0003F4FFC0154915093EB00552359F0F90141
:1006C00024912093EC009C012D5F3F4F3196849143
:1006D0008093ED004F5F453011F0C901E5CF8EE109
:1006E00072C0883049F4903809F072C070DE809191
:1006F0000B018093F10045C0813271F4913A09F009
:1007000067C065DEE0E0F1E087E08E0F91919093A5
:10071000F1008E13FBCF35C08032A1F4913209F085
:1007200057C08091E80082FFFCCFE0E0F1E087E075
:100730008E0F9091F10091938E13FBCF8BEF8093EE
:10074000E8001FC0823239F4913209F041C00093B1
:1007500008013DDE16C0811118C0998338DE9981E9
:10076000923851F4E092E9008091EB0085FB8827F4
:1007700080F91092E90001C080E08093F1001092AE
:10078000F1008EEF8093E80026C0282F2D7F2130C6
:10079000F9F49230E9F4012BD9F42E2D2F779FEF45
:1007A000920F9430A8F49EEF9093E8002093E90014
:1007B000833071F089E18093EB0081E090E001C02B
:1007C000880F2A95EAF78093EA001092EA0003C0A6
:1007D00081E28093EB000F90DF91CF91FF91EF9139
:1007E000BF91AF919F918F917F916F915F914F9149
:1007F0003F912F911F910F91FF90EF900F900BBEA3
:0E0800000F900FBE0F901F901895F894FFCF29
:08080E0000E1000000000800F9
:00000001FF
